:020000040800F2
:10000000005000205D0D0008010D0008070D0008DC
:100010000D0D0008130D0008190D00080000000068
:100020000000000000000000000000001F0D00089C
:100030002B0D000800000000370D0008430D0008DC
:10004000A50D0008A50D0008A50D0008A50D0008C8
:10005000A50D0008A50D0008A50D0008A50D0008B8
:10006000A50D0008A50D0008A50D0008A50D0008A8
:10007000A50D0008A50D0008A50D0008A50D000898
:10008000A50D0008A50D0008A50D0008A50D000888
:10009000A50D0008A50D0008A50D0008A50D000878
:1000A000A50D0008A50D0008A50D0008A50D000868
:1000B000A50D0008A50D0008A50D0008A50D000858
:1000C000A50D0008A50D0008A50D0008A50D000848
:1000D000A50D0008A50D0008A50D0008A50D000838
:1000E000A50D0008A50D0008A50D000800000000E2
:1000F0000000000000000000000000000000000000
:0C01000000000000000000005FF808F1A3
:10010C0010B5054C237833B9044B13B10448AFF345
:10011C0000800123237010BD0C00002000000000A3
:10012C00A828000808B5034B1BB103490348AFF3DB
:10013C00008008BD0000000010000020A828000866
:10014C0080B500AF00F02AFE00F078FA00F040FC19
:10015C0000F036FB00F0AEFB00F010FC00F0AEFA45
:10016C0001224FF40051764801F006F90C21754834
:10017C0001F084FD0021744801F080FD04217248D7
:10018C0001F07CFD0821704801F078FD0C216E48CF
:10019C0001F074FD00216D4801F070FD04216B48E5
:1001AC0001F06CFD06225021694802F06FFB654B93
:1001BC001B6800221A64644B1B6800225A63624B52
:1001CC001B6800229A63604B1B680022DA635E4B4B
:1001DC001B6800221A645D4B1B6800225A635B4B40
:1001EC001B6800229A63072200215A4802F04EFB3A
:1001FC00642308225749584802F0AAF90346002BF9
:10020C0040F04981534B9B79442B68D1514BDB799E
:10021C005F2B64D100224FF40051494801F0ACF837
:10022C00484B1B6800221A644A4B1A78484B1A70C8
:10023C00484B5A78464B5A70464B9A78444B9A70B6
:10024C00444BDA78424BDA70424B1A79404B1A71B4
:10025C00404B5A793E4B5A713D4B1B78283B32220E
:10026C0002FB03F303F57A62374B1B685A63384B76
:10027C005B78283B322202FB03F303F57A62324BA4
:10028C001B689A63324B9B78283B322202FB03F3A8
:10029C0003F57A622C4B1B68DA632D4BDB78283B19
:1002AC00322202FB03F303F57A62274B1B681A64B4
:1002BC00274B1B79283B322202FB03F303F57A62AE
:1002CC00224B1B685A63224B5B79283B322202FB80
:1002DC0003F303F57A621D4B1B689A63D5E01D4B43
:1002EC009B79002B00F0D1801A4BDB79002B00F0AE
:1002FC00CC8001224FF40051114801F03DF8114B14
:10030C001B6841F63F721A648FE0144B1B68104A4D
:10031C00D35C502B38D0114B1B680D4AD35C502B3F
:10032C001ED90E4B1B680A4AD35C782B18D80B4B82
:10033C001B68074AD25C013AD1B2054AD15423E07A
:10034C00001001402800002070000020B8000020A0
:10035C004C01002044010020000100205401002029
:10036C00604B1B68604AD35C4F2B0DD85D4B1B68F0
:10037C005D4AD35C272B07D95A4B1B685A4AD25C6F
:10038C000132D1B2584AD154564B1B680133554AED
:10039C001360544B1B68052BB7DD534B1B78283B64
:1003AC00322202FB03F303F57A62504B1B685A634B
:1003BC004D4B5B78283B322202FB03F303F57A6248
:1003CC004A4B1B689A63484B9B78283B322202FBB2
:1003DC0003F303F57A62454B1B68DA63424BDB7817
:1003EC00283B322202FB03F303F57A623F4B1B6876
:1003FC001A643D4B1B79283B322202FB03F303F5B5
:10040C007A623B4B1B685A63374B5B79283B322231
:10041C0002FB03F303F57A62354B1B689A63314B8D
:10042C0000221A60642000F01BFD2F4B1B78502B10
:10043C00AFD12D4B5B78502BABD12B4B9B78502BEA
:10044C00A7D1294BDB78502BA3D1274B1B79502BF1
:10045C009FD1254B5B79502B9BD1244B1B680022E1
:10046C005A63224B1B6800229A63204B1B680022A4
:10047C00DA631E4B1B6800221A641D4B1B6800229A
:10048C005A631B4B1B6800229A63072200211948F0
:10049C0002F0FCF9A7E601224FF40051164800F0D7
:1004AC006BFF164B1B6800221A648EE00D4B1B6809
:1004BC000D4AD35C502B37D00A4B1B680A4AD35CCD
:1004CC00502B1DD9074B1B68074AD35C782B17D8C8
:1004DC00044B1B68044AD25C013AD1B2024AD15493
:1004EC0022E000BF540100204C01002070000020CD
:1004FC00B80000204401002000100140280000201A
:10050C004A4B1B684A4AD35C4F2B0DD8474B1B6890
:10051C00474AD35C272B07D9444B1B68444AD25C0F
:10052C000132D1B2424AD154404B1B6801333F4A8D
:10053C0013603E4B1B68052BB8DD3D4B1B78283BED
:10054C00322202FB03F303F57A623A4B1B685A63BF
:10055C00374B5B78283B322202FB03F303F57A62BC
:10056C00344B1B689A63324B9B78283B322202FB3C
:10057C0003F303F57A622F4B1B68DA632C4BDB78A1
:10058C00283B322202FB03F303F57A62294B1B68EA
:10059C001A64274B1B79283B322202FB03F303F529
:1005AC007A62254B1B685A63214B5B79283B3222BC
:1005BC0002FB03F303F57A621F4B1B689A631B4B18
:1005CC0000221A60642000F04BFC194B1B78502B56
:1005DC00AFD1174B5B78502BABD1154B9B78502B75
:1005EC00A7D1134BDB78502BA3D1114B1B79502B7C
:1005FC009FD10F4B5B79502B9BD10E4B1B6800226C
:10060C005A630C4B1B6800229A630A4B1B6800222E
:10061C00DA63084B1B6800221A64074B1B68002224
:10062C005A63054B1B6800229A63DCE554010020D9
:10063C004C01002070000020B800002080B590B064
:10064C0000AF07F1180328220021184602F01EF90A
:10065C003B1D00221A605A609A60DA601A6102230C
:10066C00BB610123BB621023FB6202237B6300236B
:10067C00BB634FF4E013FB6307F11803184600F05B
:10068C0093FE0346002B01D000F0FAF90F237B6098
:10069C000223BB600023FB6000233B6100237B61D2
:1006AC003B1D0121184601F001F90346002B01D036
:1006BC0000F0E6F900BF4037BD4680BD80B592B072
:1006CC0000AF07F1400300221A605A6007F12403BF
:1006DC0000221A605A609A60DA601A615A619A6153
:1006EC003B1D20220021184602F0D0F8324B334A31
:1006FC001A60314B08225A602F4B00229A602E4B05
:10070C0041F63F72DA602C4B00221A612A4B002210
:10071C005A61294B00229A61274801F05FFA03467F
:10072C00002B01D000F0ACF900233B6400237B6468
:10073C0007F140031946204801F00EFE0346002B3A
:10074C0001D000F09DF960237B620023BB62002383
:10075C00FB6200237B630023BB630023FB6307F175
:10076C0024030C221946144801F02AFB0346002BE3
:10077C0001D000F085F900237B600023BB600023CF
:10078C00FB6000233B6100237B614FF40053BB6192
:10079C0000233B623B1D1946074801F03BFE034614
:1007AC00002B01D000F06CF9034800F0E5F900BF14
:1007BC004837BD4680BD00BF28000020002C0140FA
:1007CC0080B58AB000AF07F1200300221A605A608E
:1007DC003B1D00221A605A609A60DA601A615A61F5
:1007EC009A61334B4FF080421A60314B08225A60A9
:1007FC002F4B00229A602E4B41F63F72DA602C4B45
:10080C0000221A612A4B00229A61294801F0E6F96C
:10081C000346002B01D000F033F900233B62002388
:10082C007B6207F120031946214801F095FD034630
:10083C00002B01D000F024F960237B600023BB6007
:10084C000023FB6000237B613B1D002219461848E6
:10085C0001F0B6FA0346002B01D000F011F93B1D54
:10086C0004221946124801F0ABFA0346002B01D0C2
:10087C0000F006F93B1D082219460D4801F0A0FABC
:10088C000346002B01D000F0FBF83B1D0C2219464F
:10089C00074801F095FA0346002B01D000F0F0F860
:1008AC00034800F069F900BF2837BD4680BD00BF82
:1008BC007000002080B58AB000AF07F12003002241
:1008CC001A605A603B1D00221A605A609A60DA6006
:1008DC001A615A619A61274B274A1A60254B0822E4
:1008EC005A60244B00229A60224B41F63F72DA6028
:1008FC00204B00221A611F4B00229A611D4801F007
:10090C006DF90346002B01D000F0BAF800233B62CE
:10091C0000237B6207F120031946164801F01CFDE9
:10092C000346002B01D000F0ABF860237B60002362
:10093C00BB600023FB6000237B613B1D002219463A
:10094C000C4801F03DFA0346002B01D000F098F85A
:10095C003B1D04221946074801F032FA0346002BCE
:10096C0001D000F08DF8034800F006F900BF2837DD
:10097C00BD4680BDB80000200004004080B500AF2B
:10098C00114B124A1A60104B4FF416525A600E4B10
:10099C0000229A600C4B0022DA600B4B00221A6189
:1009AC00094B0C225A61084B00229A61064B00221B
:1009BC00DA61054801F07FFD0346002B01D000F001
:1009CC005FF800BF80BD00BF000100200048004060
:1009DC0080B588B000AF07F1100300221A605A608E
:1009EC009A60DA60244B9B69234A43F010039361AD
:1009FC00214B9B6903F01003FB60FB681E4B9B694A
:100A0C001D4A43F0200393611B4B9B6903F02003A9
:100A1C00BB60BB68184B9B69174A43F00403936196
:100A2C00154B9B6903F004037B607B68124B9B693D
:100A3C00114A43F0080393610F4B9B6903F00803C1
:100A4C003B603B6800224FF400510C4800F094FCD2
:100A5C004FF400533B6101237B610023BB610223F4
:100A6C00FB6107F110031946044800F001FB00BFBD
:100A7C002037BD4680BD00BF001002400010014071
:100A8C0080B400AF72B600BFFEE7000080B485B042
:100A9C0000AF154B9B69144A43F001039361124B51
:100AAC009B6903F00103BB60BB680F4BDB690E4A0B
:100ABC0043F08053D3610C4BDB6903F080537B60B4
:100ACC007B680A4B5B68FB60FB6823F0E063FB60B0
:100ADC00FB6843F00073FB60044AFB68536000BF83
:100AEC001437BD4680BC7047001002400000014026
:100AFC0080B487B000AF78607B681B681B4A934258
:100B0C000CD11B4B9B691A4A43F400639361184B3D
:100B1C009B6903F400637B617B6922E07B681B6843
:100B2C00B3F1804F0CD1124BDB69114A43F0010336
:100B3C00D3610F4BDB6903F001033B613B6910E0B0
:100B4C007B681B680B4A93420BD1094BDB69084A43
:100B5C0043F00203D361064BDB6903F00203FB6035
:100B6C00FB6800BF1C37BD4680BC7047002C0140A1
:100B7C00001002400004004080B58AB000AF7860DD
:100B8C0007F1180300221A605A609A60DA607B68D9
:100B9C001B682E4A934219D12D4B9B692C4A43F06A
:100BAC00040393612A4B9B6903F004037B617B690B
:100BBC004FF40063BB610223FB6102237B6207F1EC
:100BCC0018031946234800F053FA3AE07B681B6877
:100BDC00B3F1804F18D11E4B9B691D4A43F004039F
:100BEC0093611B4B9B6903F004033B613B690F232F
:100BFC00BB610223FB6102237B6207F118031946D8
:100C0C00144800F035FA1CE07B681B68124A9342CA
:100C1C0017D10F4B9B690E4A43F0040393610C4BA5
:100C2C009B6903F00403FB60FB68C023BB610223D8
:100C3C00FB6102237B6207F118031946054800F09B
:100C4C0017FA00BF2837BD4680BD00BF002C0140FD
:100C5C0000100240000801400004004080B588B03C
:100C6C0000AF786007F1100300221A605A609A6096
:100C7C00DA607B681B681C4A934231D11B4BDB69E1
:100C8C001A4A43F48023D361184BDB6903F48023A5
:100C9C00FB60FB68154B9B69144A43F00803936196
:100CAC00124B9B6903F00803BB60BB684FF4806375
:100CBC003B6102237B610323FB6107F1100319469F
:100CCC000B4800F0D5F94FF400633B6100237B61C6
:100CDC000023BB6107F110031946054800F0C8F961
:100CEC0000BF2037BD4680BD0048004000100240C8
:100CFC00000C014080B400AFFEE780B400AFFEE70B
:100D0C0080B400AFFEE780B400AFFEE780B400AF64
:100D1C00FEE780B400AF00BFBD4680BC704780B416
:100D2C0000AF00BFBD4680BC704780B400AF00BFB1
:100D3C00BD4680BC704780B500AF00F075F800BFB1
:100D4C0080BD80B400AF00BFBD4680BC70470000C2
:100D5C000C480D490D4A002302E0D458C45004330A
:100D6C00C4188C42F9D30A4A0A4C002301E01360E0
:100D7C000432A242FBD3FFF7E4FF01F063FDFFF75F
:100D8C00DFF97047000000200C000020F02800085C
:100D9C000C0000205C010020FEE7000080B500AFD5
:100DAC00084B1B68074A43F010031360032000F044
:100DBC002BF90F2000F008F8FFF768FE0023184607
:100DCC0080BD00BF0020024080B582B000AF7860CB
:100DDC00124B1A68124B1B7819464FF47A73B3FBFB
:100DEC00F1F3B2FBF3F3184600F035F90346002B90
:100DFC0001D001230EE07B680F2B0AD80022796802
:100E0C004FF0FF3000F00BF9064A7B6813600023AB
:100E1C0000E0012318460837BD4680BD00000020C5
:100E2C00080000200400002080B400AF054B1B78A4
:100E3C001A46054B1B681344034A136000BFBD469A
:100E4C0080BC7047080000205801002080B400AF1F
:100E5C00024B1B681846BD4680BC704758010020E9
:100E6C0080B584B000AF7860FFF7F0FFB8607B68A6
:100E7C00FB60FB68B3F1FF3F05D00A4B1B781A46A9
:100E8C00FB681344FB6000BFFFF7E0FF0246BB6842
:100E9C00D31AFA689A42F7D800BF00BF1037BD4684
:100EAC0080BD00BF0800002080B485B000AF786022
:100EBC007B6803F00703FB600C4BDB68BB60BA6814
:100ECC004FF6FF031340BB60FB681A02BB68134369
:100EDC0043F0BF6343F40033BB60044ABB68D36088
:100EEC0000BF1437BD4680BC704700BF00ED00E06A
:100EFC0080B400AF044BDB681B0A03F007031846F1
:100F0C00BD4680BC704700BF00ED00E080B483B0EC
:100F1C0000AF03463960FB7197F90730002B0ADBF1
:100F2C003B68DAB20C4997F907301201D2B20B4484
:100F3C0083F800230AE03B68DAB20849FB7903F036
:100F4C000F03043B1201D2B20B441A7600BF0C37CC
:100F5C00BD4680BC704700BF00E100E000ED00E042
:100F6C0080B489B000AFF860B9607A60FB6803F0B8
:100F7C000703FB61FB69C3F10703042B28BF0423A0
:100F8C00BB61FB690433062B02D9FB69033B00E010
:100F9C0000237B614FF0FF32BB6902FA03F3DA43A3
:100FAC00BB681A407B699A404FF0FF317B6901FAAC
:100FBC0003F3D9437B680B40134318462437BD46D3
:100FCC0080BC704780B582B000AF78607B68013B15
:100FDC00B3F1807F01D301230FE00A4A7B68013B08
:100FEC0053600F214FF0FF30FFF790FF054B0022AD
:100FFC009A60044B07221A60002318460837BD4636
:10100C0080BD00BF10E000E080B582B000AF78601A
:10101C007868FFF749FF00BF0837BD4680BD80B533
:10102C0086B000AF0346B9607A60FB7300237B6126
:10103C00FFF75EFF78617A68B9687869FFF790FF0F
:10104C00024697F90F3011461846FFF75FFF00BFB5
:10105C001837BD4680BD80B582B000AF7860786827
:10106C00FFF7B0FF034618460837BD4680BD0000A9
:10107C0080B48BB000AF7860396000237B620023B2
:10108C003B6269E101227B6A02FA03F3FB613B6874
:10109C001B68FA691340BB61BA69FB699A4240F05C
:1010AC0058813B685B689A4A93425ED0984A934257
:1010BC0075D8984A934258D0964A93426FD8964A1C
:1010CC00934252D0944A934269D8944A93424CD05A
:1010DC00924A934263D8924A934246D0904A9342A2
:1010EC005DD8122B2AD8122B59D801A252F823F012
:1010FC00771100085111000863110008A5110008B0
:10110C00AB110008AB110008AB110008AB110008C3
:10111C00AB110008AB110008AB110008AB110008B3
:10112C00AB110008AB110008AB110008AB110008A3
:10113C00AB110008591100086D110008794A93424F
:10114C0013D02CE03B68DB683B6229E03B68DB6832
:10115C0004333B6224E03B68DB6808333B621FE0EE
:10116C003B68DB680C333B621AE03B689B68002BE6
:10117C0002D104233B6213E03B689B68012B05D131
:10118C0008233B627B68FA691A6109E008233B6219
:10119C007B68FA695A6103E000233B6200E000BF00
:1011AC00BB69FF2B01D87B6801E07B6804337B6152
:1011BC00BB69FF2B02D87B6A9B0002E07B6A083B71
:1011CC009B003B617B691A680F213B6901FA03F3B1
:1011DC00DB431A40396A3B6901FA03F31A437B6912
:1011EC001A603B685B6803F08053002B00F0B18001
:1011FC004D4B9B694C4A43F0010393614A4B9B69ED
:10120C0003F00103BB60BB68484A7B6A9B0802334E
:10121C0052F82330FB607B6A03F003039B000F2220
:10122C0002FA03F3DB43FA681340FB607B68404A25
:10123C00934213D07B683F4A93420DD07B683E4A61
:10124C00934207D07B683D4A934201D1032306E0C9
:10125C00042304E0022302E0012300E000237A6A65
:10126C0002F0030292009340FA681343FB602F498B
:10127C007B6A9B080233FA6841F823203B685B6861
:10128C0003F48033002B06D02D4B1A682C49BB6914
:10129C0013430B6006E02A4B1A68BB69DB432849F1
:1012AC0013400B603B685B6803F40033002B06D0E3
:1012BC00234B5A682249BB6913434B6006E0204B11
:1012CC005A68BB69DB431E4913404B603B685B6843
:1012DC0003F48013002B06D0194B9A681849BB698C
:1012EC0013438B6006E0164B9A68BB69DB431449C9
:1012FC0013408B603B685B6803F40013002B21D018
:10130C000F4BDA680E49BB691343CB6021E000BF79
:10131C0000003210000031100000221000002110DB
:10132C0000001210000011100010024000000140DB
:10133C0000080140000C0140001001400014014065
:10134C00000401400B4BDA68BB69DB4309491340CD
:10135C00CB607B6A01337B623B681A687B6A22FA3A
:10136C0003F3002B7FF48EAE00BF00BF2C37BD46BD
:10137C0080BC70470004014080B483B000AF78603B
:10138C000B467B8013467B707B78002B03D07A88CE
:10139C007B681A6103E07B881A047B681A6100BFC2
:1013AC000C37BD4680BC704780B586B000AF786006
:1013BC007B68002B01D1012372E27B681B6803F070
:1013CC000103002B00F08780924B5B6803F00C0349
:1013DC00042B0CD08F4B5B6803F00C03082B12D141
:1013EC008C4B5B6803F48033B3F5803F0BD1894B96
:1013FC001B6803F40033002B6CD07B685B68002BFC
:10140C0068D101234CE27B685B68B3F5803F06D161
:10141C00804B1B687F4A43F4803313602EE07B685B
:10142C005B68002B0CD17B4B1B687A4A23F480330E
:10143C001360784B1B68774A23F4802313601DE0FC
:10144C007B685B68B3F5A02F0CD1724B1B68714A9B
:10145C0043F4802313606F4B1B686E4A43F4803354
:10146C0013600BE06B4B1B686A4A23F480331360E8
:10147C00684B1B68674A23F4802313607B685B68A6
:10148C00002B13D0FFF7E2FC386108E0FFF7DEFC1D
:10149C0002463B69D31A642B01D9032300E25D4B4E
:1014AC001B6803F40033002BF0D014E0FFF7CEFCE4
:1014BC00386108E0FFF7CAFC02463B69D31A642B7B
:1014CC0001D90323ECE1534B1B6803F40033002BCD
:1014DC00F0D100E000BF7B681B6803F00203002B17
:1014EC0063D04C4B5B6803F00C03002B0BD0494BC7
:1014FC005B6803F00C03082B1CD1464B5B6803F4B0
:10150C008033002B16D1434B1B6803F00203002BD6
:10151C0005D07B681B69012B01D00123C0E13D4B39
:10152C001B6823F0F8027B685B69DB0039491343C5
:10153C000B603AE07B681B69002B20D0364B0122F4
:10154C001A60FFF783FC386108E0FFF77FFC024666
:10155C003B69D31A022B01D90323A1E12D4B1B6844
:10156C0003F00203002BF0D02A4B1B6823F0F80287
:10157C007B685B69DB00274913430B6015E0264B46
:10158C0000221A60FFF762FC386108E0FFF75EFC8E
:10159C0002463B69D31A022B01D9032380E11D4B70
:1015AC001B6803F00203002BF0D17B681B6803F06F
:1015BC000803002B3AD07B689B69002B19D0174B82
:1015CC0001221A60FFF742FC386108E0FFF73EFC8D
:1015DC0002463B69D31A022B01D9032360E10D4B60
:1015EC005B6A03F00203002BF0D0012000F0D8FA64
:1015FC001CE00A4B00221A60FFF728FC38610FE050
:10160C00FFF724FC02463B69D31A022B08D90323AB
:10161C0046E100BF001002400000424280044242FA
:10162C00924B5B6A03F00203002BE9D17B681B68C9
:10163C0003F00403002B00F0A6800023FB758B4BFA
:10164C00DB6903F08053002B0DD1884BDB69874A93
:10165C0043F08053D361854BDB6903F08053BB604F
:10166C00BB680123FB75824B1B6803F48073002B52
:10167C0018D17F4B1B687E4A43F480731360FFF7CD
:10168C00E5FB386108E0FFF7E1FB02463B69D31A42
:10169C00642B01D9032303E1754B1B6803F480739E
:1016AC00002BF0D07B68DB68012B06D16F4B1B6ADB
:1016BC006E4A43F0010313622DE07B68DB68002B5C
:1016CC000CD16A4B1B6A694A23F001031362674B06
:1016DC001B6A664A23F0040313621CE07B68DB6818
:1016EC00052B0CD1614B1B6A604A43F00403136257
:1016FC005E4B1B6A5D4A43F0010313620BE05B4BCC
:10170C001B6A5A4A23F001031362584B1B6A574A4F
:10171C0023F0040313627B68DB68002B15D0FFF702
:10172C0095FB38610AE0FFF791FB02463B69D31A3F
:10173C0041F28832934201D90323B1E04B4B1B6A2F
:10174C0003F00203002BEED014E0FFF77FFB3861AF
:10175C000AE0FFF77BFB02463B69D31A41F2883261
:10176C00934201D903239BE0404B1B6A03F0020315
:10177C00002BEED1FB7D012B05D13C4BDB693B4AA9
:10178C0023F08053D3617B68DB69002B00F08780EA
:10179C00364B5B6803F00C03082B61D07B68DB696C
:1017AC00022B46D1334B00221A60FFF74FFB3861F6
:1017BC0008E0FFF74BFB02463B69D31A022B01D919
:1017CC0003236DE0294B1B6803F00073002BF0D151
:1017DC007B681B6AB3F5803F08D1244B5B6823F40C
:1017EC0000327B689B68214913434B601F4B5B683D
:1017FC0023F474127B68196A7B685B6A0B431B4980
:10180C0013434B601B4B01221A60FFF71FFB38611F
:10181C0008E0FFF71BFB02463B69D31A022B01D9E8
:10182C0003233DE0114B1B6803F00073002BF0D039
:10183C0035E0104B00221A60FFF708FB386108E016
:10184C00FFF704FB02463B69D31A022B01D9032391
:10185C0026E0064B1B6803F00073002BF0D11EE052
:10186C007B68DB69012B07D1012319E000100240D2
:10187C0000700040600042420B4B5B68FB60FB68F1
:10188C0003F480327B681B6A9A4206D1FB6803F42E
:10189C0070127B685B6A9A4201D0012300E000233E
:1018AC0018461837BD4680BD0010024080B584B084
:1018BC0000AF786039607B68002B01D10123D0E048
:1018CC006A4B1B6803F007033A689A4210D9674BBE
:1018DC001B6823F0070265493B6813430B60634B9D
:1018EC001B6803F007033A689A4201D00123B8E061
:1018FC007B681B6803F00203002B20D07B681B68FD
:10190C0003F00403002B05D0594B5B68584A43F491
:10191C00E06353607B681B6803F00803002B05D061
:10192C00534B5B68524A43F460535360504B5B68B3
:10193C0023F0F0027B689B684D4913434B607B6836
:10194C001B6803F00103002B40D07B685B68012B04
:10195C0007D1474B1B6803F40033002B15D101232F
:10196C007FE07B685B68022B07D1414B1B6803F05F
:10197C000073002B09D1012373E03D4B1B6803F06E
:10198C000203002B01D101236BE0394B5B6823F080
:10199C0003027B685B68364913434B60FFF756FACA
:1019AC00F8600AE0FFF752FA0246FB68D31A41F2DC
:1019BC008832934201D9032353E02D4B5B6803F02B
:1019CC000C027B685B689B009A42EBD1274B1B682F
:1019DC0003F007033A689A4210D2244B1B6823F099
:1019EC00070222493B6813430B60204B1B6803F032
:1019FC0007033A689A4201D0012332E07B681B68E6
:101A0C0003F00403002B08D0194B5B6823F4E0624D
:101A1C007B68DB68164913434B607B681B6803F0DB
:101A2C000803002B09D0124B5B6823F460527B68CF
:101A3C001B69DB000E4913434B6000F021F8024692
:101A4C000B4B5B681B0903F00F030A49CB5C22FAB2
:101A5C0003F3094A1360094B1B681846FFF7B4F9E6
:101A6C00002318461037BD4680BD00BF0020024041
:101A7C0000100240D02800080000002004000020C4
:101A8C0090B48AB000AF294B3C1D0FCB84E80F00FB
:101A9C0040F201233B800023FB610023BB61002348
:101AAC007B6200237B6100233B62214B5B68FB6103
:101ABC00FB6903F00C03042B02D0082B03D02BE0A2
:101ACC001C4B3B622BE0FB699B0C03F00F03283390
:101ADC003B4413F8243C7B61FB6903F48033002BFB
:101AEC0012D0134B5B685B0C03F0010328333B44AF
:101AFC0013F8283CBB617B690E4A03FB02F2BB69FD
:101B0C00B2FBF3F37B6204E07B690B4A02FB03F349
:101B1C007B627B6A3B6202E0064B3B6200BF3B6A26
:101B2C0018462837BD4690BC704700BFC028000837
:101B3C000010024000127A0000093D0080B400AF92
:101B4C00024B1B681846BD4680BC70470000002045
:101B5C0080B500AFFFF7F2FF0246054B5B681B0A2E
:101B6C0003F007030349CB5C22FA03F3184680BD4C
:101B7C0000100240E028000880B500AFFFF7DEFF40
:101B8C000246054B5B68DB0A03F007030349CB5C99
:101B9C0022FA03F3184680BD00100240E02800082A
:101BAC0080B485B000AF78600A4B1B680A4AA2FB70
:101BBC0003235B0A7A6802FB03F3FB6000BFFB683C
:101BCC005A1EFA60002BF9D100BF00BF1437BD4676
:101BDC0080BC704700000020D34D621080B582B0ED
:101BEC0000AF78607B68002B01D1012341E07B685A
:101BFC0093F83D30DBB2002B06D17B68002283F8D2
:101C0C003C207868FEF774FF7B68022283F83D2045
:101C1C007B681A687B6804331946104600F08EF90D
:101C2C007B68012283F846207B68012283F83E20E2
:101C3C007B68012283F83F207B68012283F84020D7
:101C4C007B68012283F841207B68012283F84220C3
:101C5C007B68012283F843207B68012283F84420AF
:101C6C007B68012283F845207B68012283F83D20A4
:101C7C00002318460837BD4680BD000080B584B0EF
:101C8C0000AF786039603B68002B09D17B6893F812
:101C9C003E30DBB2012B14BF01230023DBB222E068
:101CAC003B68042B09D17B6893F83F30DBB2012BE6
:101CBC0014BF01230023DBB215E03B68082B09D1CC
:101CCC007B6893F84030DBB2012B14BF0123002357
:101CDC00DBB208E07B6893F84130DBB2012B14BF18
:101CEC0001230023DBB2002B01D001235EE03B6813
:101CFC00002B04D17B68022283F83E2013E03B6862
:101D0C00042B04D17B68022283F83F200BE03B6854
:101D1C00082B04D17B68022283F8402003E07B6807
:101D2C00022283F841207B681B680122396818461F
:101D3C0000F0EEFA7B681B681E4A934207D17B6861
:101D4C001B685A6C7B681B6842F400425A647B68BF
:101D5C001B68184A93420ED07B681B68B3F1804F06
:101D6C0009D07B681B68144A934204D07B681B68BB
:101D7C00124A934211D17B681B689B6803F00703DE
:101D8C00FB60FB68062B10D07B681B681A687B68AD
:101D9C001B6842F001021A6007E07B681B681A6836
:101DAC007B681B6842F001021A600023184610374A
:101DBC00BD4680BD002C01400004004000080040DE
:101DCC0080B584B000AFF860B9607A60FB6893F8B6
:101DDC003C30012B01D10223ACE0FB68012283F8DB
:101DEC003C207B680C2B00F29F8001A252F823F060
:101DFC00311E0008351F0008351F0008351F00086C
:101E0C00711E0008351F0008351F0008351F00081B
:101E1C00B31E0008351F0008351F0008351F0008C9
:101E2C00F31E0008FB681B68B968184600F0E8F858
:101E3C00FB681B689A69FB681B6842F008029A6190
:101E4C00FB681B689A69FB681B6822F004029A61A4
:101E5C00FB681B689969BB681A69FB681B680A43B5
:101E6C009A6162E0FB681B68B968184600F02EF9AD
:101E7C00FB681B689A69FB681B6842F400629A61F4
:101E8C00FB681B689A69FB681B6822F480629A6184
:101E9C00FB681B689969BB681B691A02FB681B68A5
:101EAC000A439A6141E0FB681B68B968184600F068
:101EBC0077F9FB681B68DA69FB681B6842F008025B
:101ECC00DA61FB681B68DA69FB681B6822F00402A4
:101EDC00DA61FB681B68D969BB681A69FB681B6807
:101EEC000A43DA6121E0FB681B68B968184600F008
:101EFC00C1F9FB681B68DA69FB681B6842F4006275
:101F0C00DA61FB681B68DA69FB681B6822F4806283
:101F1C00DA61FB681B68D969BB681B691A02FB682C
:101F2C001B680A43DA6100E000BFFB68002283F8FB
:101F3C003C20002318461037BD4680BD80B485B0C8
:101F4C0000AF786039607B681B68FB607B68294A4E
:101F5C0093420BD07B68B3F1804F07D07B68264A45
:101F6C00934203D07B68254A934208D1FB6823F047
:101F7C007003FB603B685B68FA681343FB607B682B
:101F8C001C4A93420BD07B68B3F1804F07D07B681F
:101F9C00194A934203D07B68184A934208D1FB68D4
:101FAC0023F44073FB603B68DB68FA681343FB6007
:101FBC00FB6823F080023B685B691343FB607B6822
:101FCC00FA681A603B689A687B68DA623B681A6840
:101FDC007B689A627B68074A934203D13B681A6913
:101FEC007B681A637B6801225A6100BF1437BD46B7
:101FFC0080BC7047002C01400004004000080040E9
:10200C0080B487B000AF786039607B681B6A23F0BE
:10201C0001027B681A627B681B6A7B617B685B6868
:10202C003B617B689B69FB60FB6823F07003FB6082
:10203C00FB6823F00303FB603B681B68FA681343DF
:10204C00FB607B6923F002037B613B689B687A69C8
:10205C0013437B617B681C4A93420CD17B6923F050
:10206C0008037B613B68DB687A6913437B617B699E
:10207C0023F004037B617B68134A934211D13B69C3
:10208C0023F480733B613B6923F400733B613B6831
:10209C005B693A6913433B613B689B693A6913433B
:1020AC003B617B683A695A607B68FA689A613B6865
:1020BC005A687B685A637B687A691A6200BF1C375E
:1020CC00BD4680BC704700BF002C014080B487B077
:1020DC0000AF786039607B681B6A23F010027B6864
:1020EC001A627B681B6A7B617B685B683B617B68FF
:1020FC009B69FB60FB6823F4E043FB60FB6823F403
:10210C004073FB603B681B681B02FA681343FB605F
:10211C007B6923F020037B613B689B681B017A6918
:10212C0013437B617B681D4A93420DD17B6923F07D
:10213C0080037B613B68DB681B017A6913437B611D
:10214C007B6923F040037B617B68144A934213D173
:10215C003B6923F480633B613B6923F400633B617F
:10216C003B685B699B003A6913433B613B689B6925
:10217C009B003A6913433B617B683A695A607B6800
:10218C00FA689A613B685A687B689A637B687A69DB
:10219C001A6200BF1C37BD4680BC7047002C014042
:1021AC0080B487B000AF786039607B681B6A23F419
:1021BC0080727B681A627B681B6A7B617B685B68D8
:1021CC003B617B68DB69FB60FB6823F07003FB60A1
:1021DC00FB6823F00303FB603B681B68FA6813433E
:1021EC00FB607B6923F400737B613B689B681B027B
:1021FC007A6913437B617B681D4A93420DD17B69DD
:10220C0023F400637B613B68DB681B027A69134330
:10221C007B617B6923F480637B617B68144A934206
:10222C0013D13B6923F480533B613B6923F4005386
:10223C003B613B685B691B013A6913433B613B683B
:10224C009B691B013A6913433B617B683A695A608D
:10225C007B68FA68DA613B685A687B68DA637B688A
:10226C007A691A6200BF1C37BD4680BC704700BF3C
:10227C00002C014080B487B000AF786039607B6877
:10228C001B6A23F480527B681A627B681B6A3B6171
:10229C007B685B687B617B68DB69FB60FB6823F4B4
:1022AC00E043FB60FB6823F44073FB603B681B68F6
:1022BC001B02FA681343FB603B6923F400533B6138
:1022CC003B689B681B033A6913433B617B680F4A6D
:1022DC00934209D17B6923F480437B613B685B6942
:1022EC009B017A6913437B617B687A695A607B68CE
:1022FC00FA68DA613B685A687B681A647B683A69E9
:10230C001A6200BF1C37BD4680BC7047002C0140D0
:10231C0080B487B000AFF860B9607A60BB6803F036
:10232C001F03012202FA03F37B61FB681A6A7B69C3
:10233C00DB431A40FB681A62FB681A6ABB6803F03D
:10234C001F03796801FA03F31A43FB681A6200BF92
:10235C001C37BD4680BC704780B485B000AF786038
:10236C0039607B6893F83C30012B01D1022346E0A5
:10237C007B68012283F83C207B68022283F83D2095
:10238C007B681B685B68FB607B681B689B68BB6039
:10239C00FB6823F07003FB603B681B68FA6813430F
:1023AC00FB607B681B68FA685A607B681B68164A7E
:1023BC0093420ED07B681B68B3F1804F09D07B68C9
:1023CC001B68124A934204D07B681B68104A9342E4
:1023DC000CD1BB6823F08003BB603B685B68BA68B8
:1023EC001343BB607B681B68BA689A607B680122E8
:1023FC0083F83D207B68002283F83C20002318469C
:10240C001437BD4680BC7047002C014000040040CE
:10241C000008004080B485B000AF786039600023BC
:10242C00FB607B6893F83C30012B01D102233DE02B
:10243C007B68012283F83C20FB6823F0FF023B6899
:10244C00DB681343FB60FB6823F440723B689B68BA
:10245C001343FB60FB6823F480623B685B681343A7
:10246C00FB60FB6823F400623B681B681343FB6052
:10247C00FB6823F480523B681B691343FB60FB68C9
:10248C0023F400523B685B691343FB60FB6823F445
:10249C0080423B68DB691343FB607B681B68FA680E
:1024AC005A647B68002283F83C20002318461437BA
:1024BC00BD4680BC704780B582B000AF78607B6849
:1024CC00002B01D101233FE07B6893F83D30DBB258
:1024DC00002B06D17B68002283F83C207868FEF73D
:1024EC00BDFB7B68242283F83D207B681B68DA687F
:1024FC007B681B6822F40052DA60786800F014F9EB
:10250C007B681B681A697B681B6822F490421A610D
:10251C007B681B685A697B681B6822F02A025A6127
:10252C007B681B68DA687B681B6842F40052DA60CF
:10253C007B6800221A647B68202283F83D207B682C
:10254C00202283F83E20002318460837BD4680BD64
:10255C0080B58AB002AFF860B9603B601346FB806F
:10256C0000237B61FB6893F83E30DBB2202B40F0FC
:10257C008C80BB68002B02D0FB88002B01D101237F
:10258C0084E0FB6893F83C30012B01D102237DE001
:10259C00FB68012283F83C20FB6800221A64FB686C
:1025AC00222283F83E20FB6800221A63FEF74EFCC1
:1025BC007861FB68FA889A85FB68FA88DA85FB688B
:1025CC009B68B3F5805F08D1FB681B69002B04D1B5
:1025DC000023FB61BB68BB6103E0BB68FB610023AC
:1025EC00BB61FB68002283F83C2043E03B6800930E
:1025FC007B6900222021F86800F04CF80346002B80
:10260C0001D0032342E0FB69002B0CD1FB681B6853
:10261C005B689BB2C3F308039AB2BB691A80BB69AF
:10262C000233BB611FE0FB689B68B3F5805F07D08A
:10263C00FB689B68002B0AD1FB681B69002B06D139
:10264C00FB681B685B68DAB2FB691A7008E0FB6810
:10265C001B685B68DBB203F07F03DAB2FB691A70AC
:10266C00FB690133FB61FB68DB8D9BB2013B9AB2CA
:10267C00FB68DA85FB68DB8D9BB2002BB6D1FB685F
:10268C00202283F83E20002300E002231846203746
:10269C00BD4680BD80B584B000AFF860B9603B60CA
:1026AC001346FB712CE0BB69B3F1FF3F28D0BB692B
:1026BC00002B07D0FEF7CAFB02463B68D31ABA6957
:1026CC009A421DD2FB681B68DA68FB681B6822F40F
:1026DC00D072DA60FB681B685A69FB681B6822F0D1
:1026EC0001025A61FB68202283F83D20FB682022FE
:1026FC0083F83E20FB68002283F83C2003230FE084
:10270C00FB681B681A68BB681340BA689A420CBF16
:10271C0001230023DBB21A46FB799A42C3D0002373
:10272C0018461037BD4680BD80B584B000AF7860C8
:10273C007B681B681B6923F440517B68DA687B68F3
:10274C001B680A431A617B689A687B681B691A4389
:10275C007B685B691343BB607B681B68DB6823F495
:10276C00B05323F00C037A681268B9680B43D3603A
:10277C007B681B685B6923F440717B689A697B6892
:10278C001B680A435A617B681B682C4A934203D12D
:10279C00FFF7F2F9F86002E0FFF7DAF9F860FA688F
:1027AC0013469B0013449A001A447B685B689B0099
:1027BC00B2FBF3F3224AA2FB03235B091901FA686B
:1027CC0013469B0013449A001A447B685B689B0079
:1027DC00B2FBF3F21A4BA3FB02035B09642000FB70
:1027EC0003F3D31A1B013233154AA2FB03235B09F3
:1027FC0003F0F0031944FA6813469B0013449A0043
:10280C001A447B685B689B00B2FBF3F20C4BA3FB96
:10281C0002035B09642000FB03F3D31A1B01323360
:10282C00074AA2FB03235B0903F00F027B681B68BA
:10283C000A449A6000BF1037BD4680BD0038014085
:10284C001F85EB5170B500260C4D0D4C641BA4106C
:10285C00A64209D100F022F800260A4D0A4C641B4E
:10286C00A410A64205D170BD55F8043B984701361B
:10287C00EEE755F8043B98470136F2E7E8280008E4
:10288C00E8280008E8280008EC2800080346024461
:10289C00934200D1704703F8011BF9E7F8B500BF6C
:1028AC00F8BC08BC9E467047F8B500BFF8BC08BC25
:0428BC009E4670477D
:1028C00002030405060708090A0B0C0D0E0F101071
:1028D00000000000000000000102030406070809D0
:0828E0000000000001020304E6
:0428E80031010008B2
:0428EC000D010008D2
:0C28F0000024F4001000000001000000B3
:0400000508000D5D85
:00000001FF
