:020000040800F2
:1000000000500020ED0E0008890E0008910E000837
:10001000990E0008A10E0008A90E000800000000BB
:10002000000000000000000000000000B10E000809
:10003000BD0E000800000000C90E0008D50E000823
:10004000350F0008350F0008350F0008350F000880
:10005000350F0008350F0008350F0008350F000870
:10006000350F0008350F0008350F0008350F000860
:10007000350F0008350F0008350F0008350F000850
:10008000350F0008350F0008350F0008350F000840
:10009000350F0008350F0008350F0008350F000830
:1000A000350F0008350F0008350F0008350F000820
:1000B000350F0008350F0008350F0008350F000810
:1000C000350F0008350F0008350F0008350F000800
:1000D000350F0008350F0008350F0008350F0008F0
:1000E000350F0008350F0008350F0008000000002C
:1000F0000000000000000000000000000000000000
:0C01000000000000000000005FF808F1A3
:10010C0010B5054C237833B9044B13B10448AFF345
:10011C0000800123237010BD10000020000000009F
:10012C00C02E000808B5034B1BB103490348AFF3BD
:10013C00008008BD0000000014000020C02E000844
:10014C0080B582B000AF00F0F1FE00F0C1FA00F013
:10015C00E9FC00F09BFB00F02FFC00F0B9FC00F078
:10016C00F7FA01224FF400517D4801F0CDF90C2132
:10017C007C4801F0A3FE00217B4801F09FFE042186
:10018C00794801F09BFE0821774801F097FE0C217D
:10019C00754801F093FE0021744801F08FFE042194
:1001AC00724801F08BFE0821704801F087FE07228F
:1001BC0050216F4802F052FE6A4B1B6800221A64F1
:1001CC00694B1B6800225A63674B1B6800229A63B9
:1001DC00654B1B680022DA63634B1B6800221A64B0
:1001EC00624B1B6800225A63604B1B6800229A63A7
:1001FC005E4B1B680022DA63082200215D4802F086
:10020C002DFE642308225B495B4802F0ADFC0346DB
:10021C00002B40F07281574BDB795F2B73D100229E
:10022C004FF400514E4801F06FF94E4B1B68002201
:10023C001A64504B1A784E4B1A704E4B5A784C4BE2
:10024C005A704C4B9A784A4B9A704A4BDA78484B16
:10025C00DA70484B1A79464B1A71464B5A79444B13
:10026C005A71444B9A79424B9A71414B1B78283BFB
:10027C00322202FB03F303F57A623B4B1B685A6391
:10028C003B4B5B78283B322202FB03F303F57A628B
:10029C00354B1B689A63364B9B78283B322202FB0A
:1002AC0003F303F57A62304B1B68DA63304BDB786F
:1002BC00283B322202FB03F303F57A622A4B1B68BC
:1002CC001A642B4B1B79283B322202FB03F303F5F8
:1002DC007A62264B1B685A63254B5B79283B32228A
:1002EC0002FB03F303F57A62204B1B689A63204BE5
:1002FC009B79283B322202FB03F303F57A621B4BFA
:10030C001B68DA63F3E01B4BDB79002B00F0EF800A
:10031C0001224FF40051124801F0F6F8114B1B6802
:10032C0041F63F721A649BE0144B1B68104AD35C75
:10033C00502B39D0114B1B680D4AD35C502B1FD955
:10034C000E4B1B680A4AD35C782B19D80B4B1B68D5
:10035C00074AD25C013AD1B2054AD15424E000BF1D
:10036C00001001402C00002074000020BC00002074
:10037C0050010020480100200401002058010020F9
:10038C00714B1B68714AD35C4F2B0DD86E4B1B689D
:10039C006E4AD35C272B07D96B4B1B686B4AD25C1C
:1003AC000132D1B2694AD154674B1B680133664A9A
:1003BC001360654B1B68062BB6DD644B1B78283B22
:1003CC00322202FB03F303F57A62614B1B685A631A
:1003DC005E4B5B78283B322202FB03F303F57A6217
:1003EC005B4B1B689A63594B9B78283B322202FB70
:1003FC0003F303F57A62564B1B68DA63534BDB78D5
:10040C00283B322202FB03F303F57A62504B1B6844
:10041C001A644E4B1B79283B322202FB03F303F583
:10042C007A624C4B1B685A63484B5B79283B3222EF
:10043C0002FB03F303F57A62464B1B689A63434B4A
:10044C009B79283B322202FB03F303F57A62414B82
:10045C001B68DA633C4B00221A60322000F0C8FDA6
:10046C003A4B1B78502BA4D1384B5B78502BA0D136
:10047C00364B9B78502B9CD1344BDB78502B98D13E
:10048C00324B1B79502B94D1304B5B79502B90D144
:10049C002E4B9B79502B8CD12D4B1B6800225A6311
:1004AC002B4B1B6800229A63294B1B680022DA63D2
:1004BC00274B1B6800221A64264B1B6800225A63C8
:1004CC00244B1B6800229A63224B1B680022DA63C0
:1004DC0000237B6008E0142301221F491F4802F00F
:1004EC00B1FA7B6801337B607B681D2BF3DD07223F
:1004FC0000211B4802F0B2FC7EE601224FF40051B1
:10050C00184801F001F8184B1B6800221A649DE092
:10051C000D4B1B680D4AD35C502B3BD00A4B1B6810
:10052C000A4AD35C502B21D9074B1B68074AD35C72
:10053C00782B1BD8044B1B68044AD25C013AD1B20D
:10054C00024AD15426E000BF58010020500100207F
:10055C0074000020BC0000200000002004010020DA
:10056C0048010020001001402C000020544B1B6857
:10057C00544AD35C4F2B0DD8514B1B68514AD35C5A
:10058C00272B07D94E4B1B684E4AD25C0132D1B295
:10059C004C4AD1544A4B1B680133494A1360484BAF
:1005AC001B68062BB4DD474B1B78283B322202FB21
:1005BC0003F303F57A62444B1B685A63414B5B7837
:1005CC00283B322202FB03F303F57A623E4B1B6895
:1005DC009A633C4B9B78283B322202FB03F303F5D6
:1005EC007A62394B1B68DA63364BDB78283B322254
:1005FC0002FB03F303F57A62334B1B681A64314B2D
:10060C001B79283B322202FB03F303F57A622F4B52
:10061C001B685A632B4B5B79283B322202FB03F39A
:10062C0003F57A62294B1B689A63264B9B79283B0E
:10063C00322202FB03F303F57A62244B1B68DA6364
:10064C001F4B00221A60322000F0D2FC1D4B1B788D
:10065C00502BA4D11B4B5B78502BA0D1194B9B7802
:10066C00502B9CD1174BDB78502B98D1154B1B7909
:10067C00502B94D1134B5B79502B90D1114B9B7910
:10068C00502B8CD1104B1B6800225A630E4B1B68ED
:10069C0000229A630C4B1B680022DA630A4B1B681E
:1006AC0000221A64094B1B6800225A63074B1B6813
:1006BC0000229A63054B1B680022DA639CE500BF9D
:1006CC00580100205001002074000020BC000020C4
:1006DC0080B590B000AF07F118032822002118460E
:1006EC0002F0BCFB3B1D00221A605A609A60DA6073
:1006FC001A610223BB610123BB621023FB6202233C
:10070C007B630023BB634FF4E013FB6307F1180317
:10071C00184600F011FF0346002B01D000F05AFAE6
:10072C000F237B600223BB600023FB6000233B6133
:10073C0000237B613B1D0121184601F07FF9034624
:10074C00002B01D000F046FA00BF4037BD4680BDFB
:10075C0080B596B000AF07F1480300221A605A60CA
:10076C009A60DA6007F1400300221A605A6007F1C0
:10077C00240300221A605A609A60DA601A615A6186
:10078C009A613B1D20220021184602F067FB3D4B6D
:10079C003D4A1A603B4B08225A603A4B00229A6041
:1007AC00384B41F63F72DA60364B00221A61354BFA
:1007BC0000225A61334B00229A61324801F0D6FA7A
:1007CC000346002B01D000F005FA4FF48053BB64B4
:1007DC0007F1480319462B4801F0D0FC0346002BC7
:1007EC0001D000F0F7F9274801F00FFB0346002B6E
:1007FC0001D000F0EFF900233B6400237B6407F188
:10080C00400319461F4802F021F80346002B01D083
:10081C0000F0E0F960237B620023BB620023FB62E3
:10082C0000237B630023BB630023FB6307F12403DA
:10083C000C221946134801F0E3FB0346002B01D0B0
:10084C0000F0C8F900237B600023BB600023FB6031
:10085C0000233B6100237B614FF40053BB610023F9
:10086C003B623B1D1946074802F04EF80346002B2D
:10087C0001D000F0AFF9034800F028FA00BF583758
:10088C00BD4680BD2C000020002C014080B58EB0F0
:10089C0000AF07F1280300221A605A609A60DA60F0
:1008AC0007F1200300221A605A603B1D00221A60D7
:1008BC005A609A60DA601A615A619A613D4B4FF046
:1008CC0080421A603B4B08225A603A4B00229A60D5
:1008DC00384B41F63F72DA60364B00221A61354BC9
:1008EC0000229A61334801F041FA0346002B01D0F3
:1008FC0000F070F94FF48053BB6207F128031946DE
:10090C002C4801F03BFC0346002B01D000F062F9AF
:10091C00284801F07AFA0346002B01D000F05AF96E
:10092C0000233B6200237B6207F120031946214818
:10093C0001F08CFF0346002B01D000F04BF9602333
:10094C007B600023BB600023FB6000237B613B1DAD
:10095C0000221946174801F053FB0346002B01D027
:10096C0000F038F93B1D04221946124801F048FBEF
:10097C000346002B01D000F02DF93B1D082219462F
:10098C000C4801F03DFB0346002B01D000F022F98E
:10099C003B1D0C221946074801F032FB0346002B85
:1009AC0001D000F017F9034800F090F900BF383778
:1009BC00BD4680BD7400002080B58EB000AF07F13D
:1009CC00280300221A605A609A60DA6007F120034B
:1009DC0000221A605A603B1D00221A605A609A600D
:1009EC00DA601A615A619A61374B384A1A60364B91
:1009FC0008225A60344B00229A60334B41F63F7206
:100A0C00DA60314B00221A612F4B00229A612E487A
:100A1C0001F0ACF90346002B01D000F0DBF84FF4E9
:100A2C008053BB6207F128031946274801F0A6FB47
:100A3C000346002B01D000F0CDF8234801F0E5F976
:100A4C000346002B01D000F0C5F800233B620023C5
:100A5C007B6207F1200319461B4801F0F7FE0346A1
:100A6C00002B01D000F0B6F860237B600023BB6044
:100A7C000023FB6000237B613B1D002219461248BA
:100A8C0001F0BEFA0346002B01D000F0A3F83B1D89
:100A9C00042219460C4801F0B3FA0346002B01D08E
:100AAC0000F098F83B1D08221946074801F0A8FAF7
:100ABC000346002B01D000F08DF8034800F006F936
:100ACC0000BF3837BD4680BDBC000020000400408C
:100ADC0080B500AF114B124A1A60104B4FF41652EE
:100AEC005A600E4B00229A600C4B0022DA600B4BC2
:100AFC0000221A61094B0C225A61084B00229A61A0
:100B0C00064B0022DA61054801F04FFF0346002B2B
:100B1C0001D000F05FF800BF80BD00BF04010020D1
:100B2C000048004080B588B000AF07F110030022E8
:100B3C001A605A609A60DA60244B9B69234A43F02E
:100B4C0010039361214B9B6903F01003FB60FB685E
:100B5C001E4B9B691D4A43F0200393611B4B9B6901
:100B6C0003F02003BB60BB68184B9B69174A43F02A
:100B7C0004039361154B9B6903F004037B607B6852
:100B8C00124B9B69114A43F0080393610F4B9B690D
:100B9C0003F008033B603B6800224FF400510C4803
:100BAC0000F0B2FC4FF400533B6101237B61002346
:100BBC00BB610223FB6107F110031946044800F0E6
:100BCC001FFB00BF2037BD4680BD00BF0010024098
:100BDC000010014080B400AF72B600BF00BFFDE74B
:100BEC0080B485B000AF154B9B69144A43F00103E8
:100BFC009361124B9B6903F00103BB60BB680F4B05
:100C0C00DB690E4A43F08053D3610C4BDB6903F074
:100C1C0080537B607B680A4B5B68FB60FB6823F04E
:100C2C00E063FB60FB6843F00073FB60044AFB6805
:100C3C00536000BF1437BD4680BC704700100240A3
:100C4C000000014080B487B000AF78607B681B68FF
:100C5C001B4A93420CD11B4B9B691A4A43F4006309
:100C6C009361184B9B6903F400637B617B6922E001
:100C7C007B681B68B3F1804F0CD1124BDB69114AB6
:100C8C0043F00103D3610F4BDB6903F001033B61BC
:100C9C003B6910E07B681B680B4A93420BD1094BF4
:100CAC00DB69084A43F00203D361064BDB6903F0AE
:100CBC000203FB60FB6800BF1C37BD4680BC70475D
:100CCC00002C0140001002400004004080B58AB0A6
:100CDC0000AF786007F1180300221A605A609A601E
:100CEC00DA607B681B683A4A934219D1394B9B698D
:100CFC00384A43F004039361364B9B6903F00403B9
:100D0C007B617B694FF40063BB610223FB610223AF
:100D1C007B6207F1180319462F4800F071FA52E074
:100D2C007B681B68B3F1804F18D12A4B9B69294A09
:100D3C0043F004039361274B9B6903F004033B616D
:100D4C003B690F23BB610223FB6102237B6207F12A
:100D5C0018031946204800F053FA34E07B681B68EE
:100D6C001E4A93422FD11B4B9B691A4A43F0040332
:100D7C009361184B9B6903F00403FB60FB68154BF4
:100D8C009B69144A43F008039361124B9B6903F06F
:100D9C000803BB60BB68C023BB610223FB61022359
:100DAC007B6207F1180319460B4800F029FA01235E
:100DBC00BB610223FB6102237B6207F11803194616
:100DCC00074800F01DFA00BF2837BD4680BD00BFA4
:100DDC00002C0140001002400008014000040040BB
:100DEC00000C014080B588B000AF786007F11003AB
:100DFC0000221A605A609A60DA607B681B681C4A91
:100E0C00934231D11B4BDB691A4A43F48023D361E3
:100E1C00184BDB6903F48023FB60FB68154B9B6963
:100E2C00144A43F008039361124B9B6903F00803C7
:100E3C00BB60BB684FF480633B6102237B6103237F
:100E4C00FB6107F1100319460B4800F0D9F94FF478
:100E5C0000633B6100237B610023BB6107F110033E
:100E6C001946054800F0CCF900BF2037BD4680BDBF
:100E7C000048004000100240000C014080B400AF5C
:100E8C0000BFFDE780B400AF00BFFDE780B400AF4A
:100E9C0000BFFDE780B400AF00BFFDE780B400AF3A
:100EAC0000BFFDE780B400AF00BFBD4680BC7047FB
:100EBC0080B400AF00BFBD4680BC704780B400AFAB
:100ECC0000BFBD4680BC704780B500AF00F074F821
:100EDC0000BF80BD80B400AF00BFBD4680BC704772
:100EEC000C480D490D4A002302E0D458C450043379
:100EFC00C4188C42F9D30A4A0A4C002301E013604F
:100F0C000432A242FBD3FFF7E5FF01F0AFFFFFF77E
:100F1C0017F970470000002010000020082F00086F
:100F2C001000002060010020FEE7000080B500AF3B
:100F3C00084B1B68074A43F010031360032000F0B2
:100F4C002BF90F2000F008F8FFF74AFE0023184693
:100F5C0080BD00BF0020024080B582B000AF786039
:100F6C00124B1A68124B1B7819464FF47A73B3FB69
:100F7C00F1F3B2FBF3F3184600F035F90346002BFE
:100F8C0001D001230EE07B680F2B0AD80022796870
:100F9C004FF0FF3000F00BF9064A7B68136000231A
:100FAC0000E0012318460837BD4680BD0400002030
:100FBC000C0000200800002080B400AF054B1B780B
:100FCC001A46054B1B681344034A136000BFBD4609
:100FDC0080BC70470C0000205C01002080B400AF86
:100FEC00024B1B681846BD4680BC70475C01002054
:100FFC0080B584B000AF7860FFF7F0FFB8607B6815
:10100C00FB60FB68B3F1FF3F05D00A4B1B781A4617
:10101C00FB681344FB6000BFFFF7E0FF0246BB68B0
:10102C00D31AFA689A42F7D800BF00BF1037BD46F2
:10103C0080BD00BF0C00002080B485B000AF78608C
:10104C007B6803F00703FB600C4BDB68BB60BA6882
:10105C004FF6FF031340BB60FB681A02BB681343D7
:10106C0043F0BF6343F40033BB60044ABB68D360F6
:10107C0000BF1437BD4680BC704700BF00ED00E0D8
:10108C0080B400AF044BDB681B0A03F0070318465F
:10109C00BD4680BC704700BF00ED00E080B483B05B
:1010AC0000AF03463960FB7197F90730002B0ADB60
:1010BC003B68DAB20C4997F907301201D2B20B44F3
:1010CC0083F800230AE03B68DAB20849FB7903F0A5
:1010DC000F03043B1201D2B20B441A7600BF0C373B
:1010EC00BD4680BC704700BF00E100E000ED00E0B1
:1010FC0080B489B000AFF860B9607A60FB6803F027
:10110C000703FB61FB69C3F10703042B28BF04230E
:10111C00BB61FB690433062B02D9FB69033B00E07E
:10112C0000237B614FF0FF32BB6902FA03F3DA4311
:10113C00BB681A407B699A404FF0FF317B6901FA1A
:10114C0003F3D9437B680B40134318462437BD4641
:10115C0080BC704780B582B000AF78607B68013B83
:10116C00B3F1807F01D301230FE00A4A7B68013B76
:10117C0053600F214FF0FF30FFF790FF054B00221B
:10118C009A60044B07221A60002318460837BD46A4
:10119C0080BD00BF10E000E080B582B000AF786089
:1011AC007868FFF749FF00BF0837BD4680BD80B5A2
:1011BC0086B000AF0346B9607A60FB7300237B6195
:1011CC00FFF75EFF78617A68B9687869FFF790FF7E
:1011DC00024697F90F3011461846FFF75FFF00BF24
:1011EC001837BD4680BD80B582B000AF7860786896
:1011FC00FFF7B0FF034618460837BD4680BD000018
:10120C0080B48BB000AF7860396000237B62002320
:10121C003B6269E101227B6A02FA03F3FB613B68E2
:10122C001B68FA691340BB61BA69FB699A4240F0CA
:10123C0058813B685B689A4A93425ED0984A9342C5
:10124C0075D8984A934258D0964A93426FD8964A8A
:10125C00934252D0944A934269D8944A93424CD0C8
:10126C00924A934263D8924A934246D0904A934210
:10127C005DD8122B2AD8122B59D801A252F823F080
:10128C0007130008E1120008F312000835130008D8
:10129C003B1300083B1300083B1300083B130008EA
:1012AC003B1300083B1300083B1300083B130008DA
:1012BC003B1300083B1300083B1300083B130008CA
:1012CC003B130008E9120008FD120008794A93420A
:1012DC0013D02CE03B68DB683B6229E03B68DB68A1
:1012EC0004333B6224E03B68DB6808333B621FE05D
:1012FC003B68DB680C333B621AE03B689B68002B55
:10130C0002D104233B6213E03B689B68012B05D19F
:10131C0008233B627B68FA691A6109E008233B6287
:10132C007B68FA695A6103E000233B6200E000BF6E
:10133C00BB69FF2B01D87B6801E07B6804337B61C0
:10134C00BB69FF2B02D87B6A9B0002E07B6A083BDF
:10135C009B003B617B691A680F213B6901FA03F31F
:10136C00DB431A40396A3B6901FA03F31A437B6980
:10137C001A603B685B6803F08053002B00F0B1806F
:10138C004D4B9B694C4A43F0010393614A4B9B695B
:10139C0003F00103BB60BB68484A7B6A9B080233BD
:1013AC0052F82330FB607B6A03F003039B000F228F
:1013BC0002FA03F3DB43FA681340FB607B68404A94
:1013CC00934213D07B683F4A93420DD07B683E4AD0
:1013DC00934207D07B683D4A934201D1032306E038
:1013EC00042304E0022302E0012300E000237A6AD4
:1013FC0002F0030292009340FA681343FB602F49FA
:10140C007B6A9B080233FA6841F823203B685B68CF
:10141C0003F48033002B06D02D4B1A682C49BB6982
:10142C0013430B6006E02A4B1A68BB69DB4328495F
:10143C0013400B603B685B6803F40033002B06D051
:10144C00234B5A682249BB6913434B6006E0204B7F
:10145C005A68BB69DB431E4913404B603B685B68B1
:10146C0003F48013002B06D0194B9A681849BB69FA
:10147C0013438B6006E0164B9A68BB69DB43144937
:10148C0013408B603B685B6803F40013002B21D086
:10149C000F4BDA680E49BB691343CB6021E000BFE8
:1014AC00000032100000311000002210000021104A
:1014BC00000012100000111000100240000001404A
:1014CC0000080140000C01400010014000140140D4
:1014DC00000401400B4BDA68BB69DB43094913403C
:1014EC00CB607B6A01337B623B681A687B6A22FAA9
:1014FC0003F3002B7FF48EAE00BF00BF2C37BD462C
:10150C0080BC70470004014080B483B000AF7860A9
:10151C000B467B8013467B707B78002B03D07A883C
:10152C007B681A6103E07B881A047B681A6100BF30
:10153C000C37BD4680BC704780B586B000AF786074
:10154C007B68002B01D1012372E27B681B6803F0DE
:10155C000103002B00F08780924B5B6803F00C03B7
:10156C00042B0CD08F4B5B6803F00C03082B12D1AF
:10157C008C4B5B6803F48033B3F5803F0BD1894B04
:10158C001B6803F40033002B6CD07B685B68002B6A
:10159C0068D101234CE27B685B68B3F5803F06D1D0
:1015AC00804B1B687F4A43F4803313602EE07B68CA
:1015BC005B68002B0CD17B4B1B687A4A23F480337D
:1015CC001360784B1B68774A23F4802313601DE06B
:1015DC007B685B68B3F5A02F0CD1724B1B68714A0A
:1015EC0043F4802313606F4B1B686E4A43F48033C3
:1015FC0013600BE06B4B1B686A4A23F48033136057
:10160C00684B1B68674A23F4802313607B685B6814
:10161C00002B13D0FFF7E2FC386108E0FFF7DEFC8B
:10162C0002463B69D31A642B01D9032300E25D4BBC
:10163C001B6803F40033002BF0D014E0FFF7CEFC52
:10164C00386108E0FFF7CAFC02463B69D31A642BE9
:10165C0001D90323ECE1534B1B6803F40033002B3B
:10166C00F0D100E000BF7B681B6803F00203002B85
:10167C0063D04C4B5B6803F00C03002B0BD0494B35
:10168C005B6803F00C03082B1CD1464B5B6803F41E
:10169C008033002B16D1434B1B6803F00203002B45
:1016AC0005D07B681B69012B01D00123C0E13D4BA8
:1016BC001B6823F0F8027B685B69DB003949134334
:1016CC000B603AE07B681B69002B20D0364B012263
:1016DC001A60FFF783FC386108E0FFF77FFC0246D5
:1016EC003B69D31A022B01D90323A1E12D4B1B68B3
:1016FC0003F00203002BF0D02A4B1B6823F0F802F6
:10170C007B685B69DB00274913430B6015E0264BB4
:10171C0000221A60FFF762FC386108E0FFF75EFCFC
:10172C0002463B69D31A022B01D9032380E11D4BDE
:10173C001B6803F00203002BF0D17B681B6803F0DD
:10174C000803002B3AD07B689B69002B19D0174BF0
:10175C0001221A60FFF742FC386108E0FFF73EFCFB
:10176C0002463B69D31A022B01D9032360E10D4BCE
:10177C005B6A03F00203002BF0D0012000F0D8FAD2
:10178C001CE00A4B00221A60FFF728FC38610FE0BE
:10179C00FFF724FC02463B69D31A022B08D903231A
:1017AC0046E100BF00100240000042428004424269
:1017BC00924B5B6A03F00203002BE9D17B681B6838
:1017CC0003F00403002B00F0A6800023FB758B4B69
:1017DC00DB6903F08053002B0DD1884BDB69874A02
:1017EC0043F08053D361854BDB6903F08053BB60BE
:1017FC00BB680123FB75824B1B6803F48073002BC1
:10180C0018D17F4B1B687E4A43F480731360FFF73B
:10181C00E5FB386108E0FFF7E1FB02463B69D31AB0
:10182C00642B01D9032303E1754B1B6803F480730C
:10183C00002BF0D07B68DB68012B06D16F4B1B6A49
:10184C006E4A43F0010313622DE07B68DB68002BCA
:10185C000CD16A4B1B6A694A23F001031362674B74
:10186C001B6A664A23F0040313621CE07B68DB6886
:10187C00052B0CD1614B1B6A604A43F004031362C5
:10188C005E4B1B6A5D4A43F0010313620BE05B4B3A
:10189C001B6A5A4A23F001031362584B1B6A574ABE
:1018AC0023F0040313627B68DB68002B15D0FFF771
:1018BC0095FB38610AE0FFF791FB02463B69D31AAE
:1018CC0041F28832934201D90323B1E04B4B1B6A9E
:1018DC0003F00203002BEED014E0FFF77FFB38611E
:1018EC000AE0FFF77BFB02463B69D31A41F28832D0
:1018FC00934201D903239BE0404B1B6A03F0020384
:10190C00002BEED1FB7D012B05D13C4BDB693B4A17
:10191C0023F08053D3617B68DB69002B00F0878058
:10192C00364B5B6803F00C03082B61D07B68DB69DA
:10193C00022B46D1334B00221A60FFF74FFB386164
:10194C0008E0FFF74BFB02463B69D31A022B01D987
:10195C0003236DE0294B1B6803F00073002BF0D1BF
:10196C007B681B6AB3F5803F08D1244B5B6823F47A
:10197C0000327B689B68214913434B601F4B5B68AB
:10198C0023F474127B68196A7B685B6A0B431B49EE
:10199C0013434B601B4B01221A60FFF71FFB38618E
:1019AC0008E0FFF71BFB02463B69D31A022B01D957
:1019BC0003233DE0114B1B6803F00073002BF0D0A8
:1019CC0035E0104B00221A60FFF708FB386108E085
:1019DC00FFF704FB02463B69D31A022B01D9032300
:1019EC0026E0064B1B6803F00073002BF0D11EE0C1
:1019FC007B68DB69012B07D1012319E00010024041
:101A0C0000700040600042420B4B5B68FB60FB685F
:101A1C0003F480327B681B6A9A4206D1FB6803F49C
:101A2C0070127B685B6A9A4201D0012300E00023AC
:101A3C0018461837BD4680BD0010024080B584B0F2
:101A4C0000AF786039607B68002B01D10123D0E0B6
:101A5C006A4B1B6803F007033A689A4210D9674B2C
:101A6C001B6823F0070265493B6813430B60634B0B
:101A7C001B6803F007033A689A4201D00123B8E0CF
:101A8C007B681B6803F00203002B20D07B681B686B
:101A9C0003F00403002B05D0594B5B68584A43F400
:101AAC00E06353607B681B6803F00803002B05D0D0
:101ABC00534B5B68524A43F460535360504B5B6822
:101ACC0023F0F0027B689B684D4913434B607B68A5
:101ADC001B6803F00103002B40D07B685B68012B73
:101AEC0007D1474B1B6803F40033002B15D101239E
:101AFC007FE07B685B68022B07D1414B1B6803F0CE
:101B0C000073002B09D1012373E03D4B1B6803F0DC
:101B1C000203002B01D101236BE0394B5B6823F0EE
:101B2C0003027B685B68364913434B60FFF756FA38
:101B3C00F8600AE0FFF752FA0246FB68D31A41F24A
:101B4C008832934201D9032353E02D4B5B6803F099
:101B5C000C027B685B689B009A42EBD1274B1B689D
:101B6C0003F007033A689A4210D2244B1B6823F007
:101B7C00070222493B6813430B60204B1B6803F0A0
:101B8C0007033A689A4201D0012332E07B681B6854
:101B9C0003F00403002B08D0194B5B6823F4E062BC
:101BAC007B68DB68164913434B607B681B6803F04A
:101BBC000803002B09D0124B5B6823F460527B683E
:101BCC001B69DB000E4913434B6000F021F8024601
:101BDC000B4B5B681B0903F00F030A49CB5C22FA21
:101BEC0003F3094A1360094B1B681846FFF7B4F955
:101BFC00002318461037BD4680BD00BF00200240B0
:101C0C0000100240E82E000804000020080000200C
:101C1C0090B48AB000AF294B3C1D0FCB84E80F0069
:101C2C0040F201233B800023FB610023BB610023B6
:101C3C007B6200237B6100233B62214B5B68FB6171
:101C4C00FB6903F00C03042B02D0082B03D02BE010
:101C5C001C4B3B622BE0FB699B0C03F00F032833FE
:101C6C003B4413F8243C7B61FB6903F48033002B69
:101C7C0012D0134B5B685B0C03F0010328333B441D
:101C8C0013F8283CBB617B690E4A03FB02F2BB696B
:101C9C00B2FBF3F37B6204E07B690B4A02FB03F3B8
:101CAC007B627B6A3B6202E0064B3B6200BF3B6A95
:101CBC0018462837BD4690BC704700BFD82E000888
:101CCC000010024000127A0000093D0080B400AF01
:101CDC00024B1B681846BD4680BC704704000020B0
:101CEC0080B500AFFFF7F2FF0246054B5B681B0A9D
:101CFC0003F007030349CB5C22FA03F3184680BDBB
:101D0C0000100240F82E000880B500AFFFF7DEFF90
:101D1C000246054B5B68DB0A03F007030349CB5C07
:101D2C0022FA03F3184680BD00100240F82E00087A
:101D3C0080B485B000AF78600A4B1B680A4AA2FBDE
:101D4C0003235B0A7A6802FB03F3FB6000BFFB68AA
:101D5C005A1EFA60002BF9D100BF00BF1437BD46E4
:101D6C0080BC704704000020D34D621080B582B057
:101D7C0000AF78607B68002B01D1012341E07B68C8
:101D8C0093F83D30DBB2002B06D17B68002283F840
:101D9C003C207868FEF756FF7B68022283F83D20D2
:101DAC007B681A687B6804331946104600F0AAFA5F
:101DBC007B68012283F846207B68012283F83E2051
:101DCC007B68012283F83F207B68012283F8402046
:101DDC007B68012283F841207B68012283F8422032
:101DEC007B68012283F843207B68012283F844201E
:101DFC007B68012283F845207B68012283F83D2013
:101E0C00002318460837BD4680BD80B582B000AFB0
:101E1C0078607B68002B01D1012341E07B6893F84B
:101E2C003D30DBB2002B06D17B68002283F83C20CE
:101E3C00786800F039F87B68022283F83D207B68D3
:101E4C001A687B6804331946104600F05BFA7B680D
:101E5C00012283F846207B68012283F83E207B68B0
:101E6C00012283F83F207B68012283F840207B68A5
:101E7C00012283F841207B68012283F842207B6891
:101E8C00012283F843207B68012283F844207B687D
:101E9C00012283F845207B68012283F83D20002332
:101EAC0018460837BD4680BD80B483B000AF78605B
:101EBC0000BF0C37BD4680BC7047000080B584B0B5
:101ECC0000AF786039603B68002B09D17B6893F8D0
:101EDC003E30DBB2012B14BF01230023DBB222E026
:101EEC003B68042B09D17B6893F83F30DBB2012BA4
:101EFC0014BF01230023DBB215E03B68082B09D18A
:101F0C007B6893F84030DBB2012B14BF0123002314
:101F1C00DBB208E07B6893F84130DBB2012B14BFD5
:101F2C0001230023DBB2002B01D001235EE03B68D0
:101F3C00002B04D17B68022283F83E2013E03B681F
:101F4C00042B04D17B68022283F83F200BE03B6812
:101F5C00082B04D17B68022283F8402003E07B68C5
:101F6C00022283F841207B681B68012239681846DD
:101F7C0000F048FC7B681B681E4A934207D17B68C3
:101F8C001B685A6C7B681B6842F400425A647B687D
:101F9C001B68184A93420ED07B681B68B3F1804FC4
:101FAC0009D07B681B68144A934204D07B681B6879
:101FBC00124A934211D17B681B689B6803F007039C
:101FCC00FB60FB68062B10D07B681B681A687B686B
:101FDC001B6842F001021A6007E07B681B681A68F4
:101FEC007B681B6842F001021A6000231846103708
:101FFC00BD4680BD002C014000040040000800409C
:10200C0080B584B000AFF860B9607A60FB6893F873
:10201C003C30012B01D10223ACE0FB68012283F898
:10202C003C207B680C2B00F29F8001A252F823F01D
:10203C007120000875210008752100087521000821
:10204C00B1200008752100087521000875210008D1
:10205C00F32000087521000875210008752100087F
:10206C0033210008FB681B68B968184600F0ACF90E
:10207C00FB681B689A69FB681B6842F008029A614E
:10208C00FB681B689A69FB681B6822F004029A6162
:10209C00FB681B689969BB681A69FB681B680A4373
:1020AC009A6162E0FB681B68B968184600F0F2F9A7
:1020BC00FB681B689A69FB681B6842F400629A61B2
:1020CC00FB681B689A69FB681B6822F480629A6142
:1020DC00FB681B689969BB681B691A02FB681B6863
:1020EC000A439A6141E0FB681B68B968184600F026
:1020FC003BFAFB681B68DA69FB681B6842F0080254
:10210C00DA61FB681B68DA69FB681B6822F0040261
:10211C00DA61FB681B68D969BB681A69FB681B68C4
:10212C000A43DA6121E0FB681B68B968184600F0C5
:10213C0085FAFB681B68DA69FB681B6842F400626D
:10214C00DA61FB681B68DA69FB681B6822F4806241
:10215C00DA61FB681B68D969BB681B691A02FB68EA
:10216C001B680A43DA6100E000BFFB68002283F8B9
:10217C003C20002318461037BD4680BD80B584B086
:10218C0000AF786039607B6893F83C30012B01D14B
:10219C000223B3E07B68012283F83C207B68022297
:1021AC0083F83D207B681B689B68FB60FB6823F011
:1021BC007703FB60FB6823F47F43FB607B681B6841
:1021CC00FA689A603B681B68B3F5005F3ED0B3F5C4
:1021DC00005F00F28780B3F5805F00F08580B3F577
:1021EC00805F7FD8702B1AD0702B7BD8602B50D08F
:1021FC00602B77D8502B3CD0502B73D8402B58D019
:10220C00402B6FD8302B64D0302B6BD8202B60D068
:10221C00202B67D8002B5CD0102B5AD062E07B6847
:10222C0018683B6899683B685A683B68DB6800F043
:10223C00CAFA7B681B689B68FB60FB6843F07703FA
:10224C00FB607B681B68FA689A604EE07B681868D4
:10225C003B6899683B685A683B68DB6800F0B3FAE6
:10226C007B681B689A687B681B6842F480429A60A2
:10227C003BE07B6818683B6859683B68DB681A462A
:10228C0000F02AFA7B681B685021184600F081FA8E
:10229C002BE07B6818683B6859683B68DB681A461A
:1022AC0000F048FA7B681B686021184600F071FA50
:1022BC001BE07B6818683B6859683B68DB681A460A
:1022CC0000F00AFA7B681B684021184600F061FA9E
:1022DC000BE07B681A683B681B681946104600F0D7
:1022EC0058FA02E000BF00E000BF7B68012283F8CF
:1022FC003D207B68002283F83C20002318461037D1
:10230C00BD4680BD80B485B000AF786039607B6815
:10231C001B68FB607B68294A93420BD07B68B3F146
:10232C00804F07D07B68264A934203D07B68254AAE
:10233C00934208D1FB6823F07003FB603B685B6839
:10234C00FA681343FB607B681C4A93420BD07B6892
:10235C00B3F1804F07D07B68194A934203D07B6856
:10236C00184A934208D1FB6823F44073FB603B6826
:10237C00DB68FA681343FB60FB6823F080023B6860
:10238C005B691343FB607B68FA681A603B689A6868
:10239C007B68DA623B681A687B689A627B68074ADA
:1023AC00934203D13B681A697B681A637B680122EC
:1023BC005A6100BF1437BD4680BC7047002C0140E9
:1023CC00000400400008004080B487B000AF786083
:1023DC0039607B681B6A23F001027B681A627B6898
:1023EC001B6A7B617B685B683B617B689B69FB60FC
:1023FC00FB6823F07003FB60FB6823F00303FB60B6
:10240C003B681B68FA681343FB607B6923F002038B
:10241C007B613B689B687A6913437B617B681C4AD0
:10242C0093420CD17B6923F008037B613B68DB682A
:10243C007A6913437B617B6923F004037B617B68BE
:10244C00134A934211D13B6923F480733B613B697E
:10245C0023F400733B613B685B693A6913433B614E
:10246C003B689B693A6913433B617B683A695A60E4
:10247C007B68FA689A613B685A687B685A637B6828
:10248C007A691A6200BF1C37BD4680BC704700BF1A
:10249C00002C014080B487B000AF786039607B6855
:1024AC001B6A23F010027B681A627B681B6A7B61D3
:1024BC007B685B683B617B689B69FB60FB6823F412
:1024CC00E043FB60FB6823F44073FB603B681B68D4
:1024DC001B02FA681343FB607B6923F020037B61CA
:1024EC003B689B681B017A6913437B617B681D4ABF
:1024FC0093420DD17B6923F080037B613B68DB68E1
:10250C001B017A6913437B617B6923F040037B6178
:10251C007B68144A934213D13B6923F480633B617B
:10252C003B6923F400633B613B685B699B003A6940
:10253C0013433B613B689B699B003A6913433B61C6
:10254C007B683A695A607B68FA689A613B685A689A
:10255C007B689A637B687A691A6200BF1C37BD4638
:10256C0080BC7047002C014080B487B000AF78600D
:10257C0039607B681B6A23F480727B681A627B6803
:10258C001B6A7B617B685B683B617B68DB69FB601A
:10259C00FB6823F07003FB60FB6823F00303FB6014
:1025AC003B681B68FA681343FB607B6923F4007378
:1025BC007B613B689B681B027A6913437B617B6878
:1025CC001D4A93420DD17B6923F400637B613B6808
:1025DC00DB681B027A6913437B617B6923F480639C
:1025EC007B617B68144A934213D13B6923F480537B
:1025FC003B613B6923F400533B613B685B691B0106
:10260C003A6913433B613B689B691B013A6913436D
:10261C003B617B683A695A607B68FA68DA613B68AF
:10262C005A687B68DA637B687A691A6200BF1C3768
:10263C00BD4680BC704700BF002C014080B487B001
:10264C0000AF786039607B681B6A23F480527B682A
:10265C001A627B681B6A3B617B685B687B617B6889
:10266C00DB69FB60FB6823F4E043FB60FB6823F44D
:10267C004073FB603B681B681B02FA681343FB60EA
:10268C003B6923F400533B613B689B681B033A692D
:10269C0013433B617B680F4A934209D17B6923F456
:1026AC0080437B613B685B699B017A6913437B6167
:1026BC007B687A695A607B68FA68DA613B685A68A9
:1026CC007B681A647B683A691A6200BF1C37BD4686
:1026DC0080BC7047002C014080B487B000AFF8601C
:1026EC00B9607A60FB681B6A7B61FB681B6A23F02C
:1026FC000102FB681A62FB689B693B613B6923F032
:10270C00F0033B617B681B013A6913433B617B69B6
:10271C0023F00A037B617A69BB6813437B61FB6816
:10272C003A699A61FB687A691A6200BF1C37BD4628
:10273C0080BC704780B487B000AFF860B9607A6035
:10274C00FB681B6A23F01002FB681A62FB689B692A
:10275C007B61FB681B6A3B617B6923F470437B6183
:10276C007B681B037A6913437B613B6923F0A003ED
:10277C003B61BB681B013A6913433B61FB687A6997
:10278C009A61FB683A691A6200BF1C37BD4680BC6F
:10279C00704780B485B000AF786039607B689B6807
:1027AC00FB60FB6823F07003FB603A68FB68134323
:1027BC0043F00703FB607B68FA689A6000BF14372C
:1027CC00BD4680BC704780B487B000AFF860B9607C
:1027DC007A603B60FB689B687B617B6923F47F4379
:1027EC007B613B681A027B681A43BB6813437A69A6
:1027FC0013437B61FB687A699A6000BF1C37BD4646
:10280C0080BC704780B487B000AFF860B9607A6064
:10281C00BB6803F01F03012202FA03F37B61FB6820
:10282C001A6A7B69DB431A40FB681A62FB681A6AF6
:10283C00BB6803F01F03796801FA03F31A43FB68C2
:10284C001A6200BF1C37BD4680BC704780B485B08F
:10285C0000AF786039607B6893F83C30012B01D174
:10286C00022346E07B68012283F83C207B6802222D
:10287C0083F83D207B681B685B68FB607B681B688A
:10288C009B68BB60FB6823F07003FB603B681B68B4
:10289C00FA681343FB607B681B68FA685A607B68B4
:1028AC001B68164A93420ED07B681B68B3F1804FAD
:1028BC0009D07B681B68124A934204D07B681B6862
:1028CC00104A93420CD1BB6823F08003BB603B6879
:1028DC005B68BA681343BB607B681B68BA689A6014
:1028EC007B68012283F83D207B68002283F83C2022
:1028FC00002318461437BD4680BC7047002C01409D
:10290C00000400400008004080B485B000AF78603F
:10291C0039600023FB607B6893F83C30012B01D1BC
:10292C0002233DE07B68012283F83C20FB6823F006
:10293C00FF023B68DB681343FB60FB6823F44072C7
:10294C003B689B681343FB60FB6823F480623B6825
:10295C005B681343FB60FB6823F400623B681B68F5
:10296C001343FB60FB6823F480523B681B691343E1
:10297C00FB60FB6823F400523B685B691343FB600C
:10298C00FB6823F480423B68DB691343FB607B6884
:10299C001B68FA685A647B68002283F83C20002389
:1029AC0018461437BD4680BC704780B582B000AF66
:1029BC0078607B68002B01D101233FE07B6893F8A2
:1029CC003D30DBB2002B06D17B68002283F83C2023
:1029DC007868FEF707FA7B68242283F83D207B6831
:1029EC001B68DA687B681B6822F40052DA6078682E
:1029FC0000F0A6F97B681B681A697B681B6822F4D7
:102A0C0090421A617B681B685A697B681B6822F0CC
:102A1C002A025A617B681B68DA687B681B6842F47F
:102A2C000052DA607B6800221A647B68202283F8EB
:102A3C003D207B68202283F83E200023184608376F
:102A4C00BD4680BD80B58AB002AFF860B9603B600E
:102A5C001346FB8000237B61FB6893F83D30DBB2AF
:102A6C00202B7CD1BB68002B02D0FB88002B01D122
:102A7C00012375E0FB6893F83C30012B01D1022354
:102A8C006EE0FB68012283F83C20FB6800221A648C
:102A9C00FB68212283F83D20FEF7A0FA7861FB68E1
:102AAC00FA889A84FB68FA88DA84FB689B68B3F529
:102ABC00805F08D1FB681B69002B04D10023FB61EC
:102ACC00BB68BB6103E0BB68FB610023BB61FB68B7
:102ADC00002283F83C202AE03B6800937B690022AB
:102AEC008021F86800F0E2F80346002B01D00323A4
:102AFC0036E0FB69002B0BD1BB691B881A46FB68BF
:102B0C001B68C2F308025A60BB690233BB6107E061
:102B1C00FB691A78FB681B685A60FB690133FB611F
:102B2C00FB68DB8C9BB2013B9AB2FB68DA84FB68D6
:102B3C00DB8C9BB2002BCFD13B6800937B690022CE
:102B4C004021F86800F0B2F80346002B01D00323B3
:102B5C0006E0FB68202283F83D20002300E00223DE
:102B6C0018462037BD4680BD80B58AB002AFF860EC
:102B7C00B9603B601346FB8000237B61FB6893F8D4
:102B8C003E30DBB2202B40F08C80BB68002B02D097
:102B9C00FB88002B01D1012384E0FB6893F83C30C7
:102BAC00012B01D102237DE0FB68012283F83C203C
:102BBC00FB6800221A64FB68222283F83E20FB6823
:102BCC0000221A63FEF70AFA7861FB68FA889A8584
:102BDC00FB68FA88DA85FB689B68B3F5805F08D1DF
:102BEC00FB681B69002B04D10023FB61BB68BB6134
:102BFC0003E0BB68FB610023BB61FB68002283F828
:102C0C003C2043E03B6800937B6900222021F8685C
:102C1C0000F04CF80346002B01D0032342E0FB6983
:102C2C00002B0CD1FB681B685B689BB2C3F30803D9
:102C3C009AB2BB691A80BB690233BB611FE0FB68A7
:102C4C009B68B3F5805F07D0FB689B68002B0AD1AB
:102C5C00FB681B69002B06D1FB681B685B68DAB24A
:102C6C00FB691A7008E0FB681B685B68DBB203F059
:102C7C007F03DAB2FB691A70FB690133FB61FB68F5
:102C8C00DB8D9BB2013B9AB2FB68DA85FB68DB8D6E
:102C9C009BB2002BB6D1FB68202283F83E20002388
:102CAC0000E0022318462037BD4680BD80B584B0B5
:102CBC0000AFF860B9603B601346FB712CE0BB6958
:102CCC00B3F1FF3F28D0BB69002B07D0FEF786F984
:102CDC0002463B68D31ABA699A421DD2FB681B683C
:102CEC00DA68FB681B6822F4D072DA60FB681B6838
:102CFC005A69FB681B6822F001025A61FB682022AA
:102D0C0083F83D20FB68202283F83E20FB680022DC
:102D1C0083F83C2003230FE0FB681B681A68BB6830
:102D2C001340BA689A420CBF01230023DBB21A4647
:102D3C00FB799A42C3D0002318461037BD4680BD9C
:102D4C0080B584B000AF78607B681B681B6923F486
:102D5C0040517B68DA687B681B680A431A617B68A0
:102D6C009A687B681B691A437B685B691343BB6079
:102D7C007B681B68DB6823F4B05323F00C037A6880
:102D8C001268B9680B43D3607B681B685B6923F4DA
:102D9C0040717B689A697B681B680A435A617B683F
:102DAC001B682C4A934203D1FEF7AEFFF86002E099
:102DBC00FEF796FFF860FA6813469B0013449A00DE
:102DCC001A447B685B689B00B2FBF3F3224AA2FBBC
:102DDC0003235B091901FA6813469B0013449A00FC
:102DEC001A447B685B689B00B2FBF3F21A4BA3FBA3
:102DFC0002035B09642000FB03F3D31A1B0132337B
:102E0C00154AA2FB03235B0903F0F0031944FA688B
:102E1C0013469B0013449A001A447B685B689B0022
:102E2C00B2FBF3F20C4BA3FB02035B09642000FB27
:102E3C0003F3D31A1B013233074AA2FB03235B09AA
:102E4C0003F00F027B681B680A449A6000BF1037BE
:102E5C00BD4680BD003801401F85EB51034602443E
:102E6C00934200D1704703F8011BF9E770B50026B7
:102E7C000C4D0D4C641BA410A64209D100F01AF89D
:102E8C0000260A4D0A4C641BA410A64205D170BD45
:102E9C0055F8043B98470136EEE755F8043B984744
:102EAC000136F2E7002F0008002F0008002F000861
:102EBC00042F0008F8B500BFF8BC08BC9E4670474C
:0C2ECC00F8B500BFF8BC08BC9E4670477B
:102ED80002030405060708090A0B0C0D0E0F101053
:102EE80000000000000000000102030406070809B2
:082EF8000000000001020304C8
:042F00003101000893
:042F04000D010008B3
:102F0800410000000024F40010000000010000004F
:0400000508000EEDF4
:00000001FF
